:020000040800F2
:10000000680600206102000861030008250300085B
:100010005D0300081D030008DD0400080000000067
:10002000000000000000000000000000690300085C
:100030002103000800000000650300086D030008AC
:100040007B0200087B0200087B0200087B0200089C
:100050007B0200087B0200087B0200087B0200088C
:100060007B0200087B0200087B0200087B0200087C
:100070007B0200087B0200087B0200087B0200086C
:100080007B0200087B0200087B02000800000000E1
:100090000000000000000000000000007B020008DB
:1000A0007B0200087B0200087B0200087B0200083C
:1000B0007B0200087B0200087B0200087B0200082C
:1000C0007B0200087B0200087B0200087B0200081C
:1000D0007B0200087B0200087B0200080000000091
:1000E0007B0200087B0200087B0200080000000081
:1000F0000000000000000000000000007B0200087B
:10010000000000007B0200087B0200087B02000860
:1001100000000000000000000000000000000000DF
:100120007B0200087B0200087B0200087B020008BB
:100130007B0200080000000000000000000000003A
:100140000000000000000000000000007B0200082A
:100150007B0200087B0200087B0200087B0200088B
:100160007B0200087B020008000000000000000085
:10017000000000000000000000000000000000007F
:10018000000000007B0200080000000000000000EA
:100190007B02000800F002F800F052F814A696E87E
:1001A000000CB244B344DA4501D100F049F8BAE892
:1001B0000F000FA696E83000A5EB040504EB060738
:1001C000AAEB0704A7F101074FEA15154FEA34140B
:1001D000A4F10104AC4201D300F032F813F0010F96
:1001E00018BFFB1A43F0010300F001F8DBE71847E2
:1001F00084030000A4030000103A24BF78C878C12B
:10020000FAD8520724BF30C830C144BF04680C601C
:1002100070470000704700000023002400250026DE
:10022000103A28BF78C1FBD8520728BF30C148BF59
:100230000B6070471FB500F090F91FBD10B510BDE1
:1002400000F031F81146FFF7F5FF00F049F900F032
:100250004FF803B4FFF7F2FF03BC00F057F80000BB
:100260000948804709480047FEE7FEE7FEE7FEE74A
:10027000FEE7FEE7FEE7FEE7FEE7FEE70448054986
:10028000054A064B70470000C904000895010008A4
:100290006800002068060020680200206802002034
:1002A000704770477047754600F02CF8AE46050061
:1002B0006946534620F00700854618B020B5FFF781
:1002C000DDFFBDE820404FF000064FF000074FF083
:1002D00000084FF0000BAC46ACE8C009ACE8C00920
:1002E000ACE8C009ACE8C00921F007018D467047B1
:1002F00010B50446AFF300802046BDE81040FFF77C
:10030000A8BF0000004870470800002001491820DD
:10031000ABBEFEE72600020070470000FEE70000CB
:1003200070470000FEE7000044F6D351C1F26201BD
:10033000A0FB01014FF0FF3000EB91104EF21001D5
:10034000CEF20001486000208860052008607047F8
:1003500040F20001C2F2000108607047FEE70000B1
:10036000FEE7000070470000704700007047000083
:10037000B0B543F60005C4F20205D5F80004022129
:1003800061F30200C5F80004D5F8000400F007008E
:10039000022811D0D5F8000400F0070002280BD085
:1003A000D5F8000400F00700022805D0D5F80004B5
:1003B00000F007000228E7D147F20400C4F2000071
:1003C00050F8041C022262F38F3140F8041C2968A3
:1003D000102262F3C7012960296841F001012960F8
:1003E0002968890709D4296889075CBF29685FEAF9
:1003F000817102D429688907F2D5696848F2000240
:10040000CFF6BF72114045F210421143696069682E
:10041000012262F311416960296841F0807129600D
:10042000296889010AD4296889015CBF29685FEAC3
:10043000811103D429688901F2D500BF01684904FC
:1004400009D4016849045CBF01685FEA414102D4F4
:1004500001684904F2D5A868042120F0F000A860E2
:10046000A86861F38C20A860A868022120F460408D
:10047000A860A86861F30100A86000BFA86800F048
:100480000C0008280ED0A86800F00C00082809D03D
:10049000A86800F00C00082804D0A86800F00C0040
:1004A0000828EBD14BF60054C0F201542046FFF768
:1004B0003BFF2046FFF74CFFD5F88C0020F0807002
:1004C000C5F88C00B0BD00004EF68850CEF200009A
:1004D000016841F47001016070470000FEE7000010
:1004E00082B043F64000C4F2020041684FF6FF02BA
:1004F00041F48041416041684FF0FF3301F4804195
:1005000000910099016841F080510160006800F09D
:100510008050019001984EF60C50CEF20000016818
:10052000114040F20032C0F2FA52114301600168FA
:10053000C1F3022181F00702042A28BF04220339F3
:1005400003FA02F238BF0021D24302FA01F1090195
:10055000C175FFF70DFF00BFFEE7F1EE100A4FF681
:10056000FF71C0F2C03120EA010040F04070E1EEBE
:10057000100A7047980500080000002008000000DD
:10058000F8010008A005000808000020600600002F
:1005900018020008000000000024F4000000000021
:040000050800019559
:00000001FF
